:020000040800F2
:1000000000000220490700083D070008495F00087A
:100010003D0700083D0700083D07000800000000FC
:100020000000000000000000000000003D07000884
:100030003D070008000000003D070008CD5E0008F5
:100040003D0700083D0700083D0700083D07000880
:100050003D0700083D0700083D0700083D07000870
:100060003D0700083D0700083D070008B55A000895
:10007000C15A00083D070008CD5A0008D95A0008A7
:100080003D190108B94A00083D0700083D0700086E
:100090003D0700083D0700083D0700083D07000830
:1000A0003D0700083D0700083D0700083D07000820
:1000B000CD0A0108D90A0108E50A0108ED4A00083D
:1000C0003D070008F94A00083D07000869030108D8
:1000D000750301084D1701087D170108B5170108C0
:1000E0003D0700083D070008000000003D0700082C
:1000F0003D0700083D0700083D0700083D070008D0
:100100003D0700083D070008F10A010881030108C6
:10011000ED170108251801083D0700083D070008F4
:100120003D0700083D070008A5030108D9030108A1
:10013000711901083D0700083D0700083D07000848
:1001400000000000000000000000000000000000AF
:100150003D0700083D0700083D0700085D1801083D
:10016000054B00083D070008DD5E0008015F000840
:100170003D070008255F00083D0700083D0700080F
:100180003D0700083D07000895180108CD18010833
:100190008D030108990301083D0700083D07000889
:1001A0003D0700083D0700083D0700083D0700081F
:1001B000F95600083D0700083D0700083D07000804
:1001C0003D0700083D0700083D0700083D070008FF
:1001D0003D0700083D0700083D0700083D070008EF
:1001E0003D0700083D0700083D0700083D070008DF
:1001F0003D0700083D0700083D0700083D070008CF
:100200003D0700083D0700083D0700083D070008BE
:100210003D0700083D0700083D0700083D070008AE
:100220003D0700083D0700083D07000800000000EA
:100230003D0700083D070008000000003D070008DA
:100240003D0700083D0700083D0700083D0700087E
:100250003D0700083D0700083D0700083D0700086E
:100260003D0700083D0700083D0700083D0700085E
:100270003D0700083D0700080519010800000000BF
:100280003D0700083D0700083D070008000000008A
:08029000000000003D0700081A
:1002A000034613F8012B002AFBD1181A01387047B6
:1002B00001F0FF01102A2BDB10F0070F08D010F817
:1002C000013B013A8B422DD010F0070F42B3F6D11B
:1002D000F0B441EA012141EA014122F007047FF034
:1002E00000070023F0E80256083C85EA010586EA8B
:1002F000010685FA47F5A3FA87F586FA47F6A5FAC7
:1003000087F68EB9EED1F0BC01F0FF0102F00702D2
:1003100032B110F8013B013A83EA010313B1F8D17D
:100320000020704701387047002D06BF354603385E
:10033000073815F0010F07D1013015F4807F02BF97
:10034000013015F4C03F0130F0BC0138704700BFE8
:1003500081F0004102E000BF83F0004330B54FEA76
:1003600041044FEA430594EA050F08BF90EA020FE3
:100370001FBF54EA000C55EA020C7FEA645C7FEA76
:10038000655C00F0E2804FEA5454D4EB5555B8BF99
:100390006D420CDD2C4480EA020281EA030382EA0A
:1003A000000083EA010180EA020281EA0303362D9C
:1003B00088BF30BD11F0004F4FEA01314FF4801C6F
:1003C0004CEA113102D0404261EB410113F0004F81
:1003D0004FEA03334CEA133302D0524263EB430338
:1003E00094EA050F00F0A780A4F10104D5F1200ED6
:1003F0000DDB02FA0EFC22FA05F2801841F1000131
:1004000003FA0EF2801843FA05F359410EE0A5F104
:1004100020050EF1200E012A03FA0EFC28BF4CF035
:10042000020C43FA05F3C01851EBE37101F00045EB
:1004300007D54FF0000EDCF1000C7EEB00006EEBF8
:100440000101B1F5801F1BD3B1F5001F0CD3490882
:100450005FEA30004FEA3C0C04F101044FEA4452D9
:1004600012F5800F80F09A80BCF1004F08BF5FEA60
:10047000500C50F1000041EB045141EA050130BD40
:100480005FEA4C0C404141EB0101013C28BFB1F552
:10049000801FE9D291F0000F04BF01460020B1FA9D
:1004A00081F308BF2033A3F10B03B3F120020CDA70
:1004B0000C3208DD02F1140CC2F10C0201FA0CF04E
:1004C00021FA02F10CE002F11402D8BFC2F1200CB3
:1004D00001FA02F120FA0CFCDCBF41EA0C01904069
:1004E000E41AA2BF01EB0451294330BD6FEA0404B2
:1004F0001F3C1CDA0C340EDC04F11404C4F120029D
:1005000020FA04F001FA02F340EA030021FA04F3AE
:1005100045EA030130BDC4F10C04C4F1200220FA05
:1005200002F001FA04F340EA0300294630BD21FA43
:1005300004F0294630BD94F0000F83F4801306BF09
:1005400081F480110134013D4EE77FEA645C18BFFD
:100550007FEA655C29D094EA050F08BF90EA020F94
:1005600005D054EA000C04BF1946104630BD91EA8C
:10057000030F1EBF0021002030BD5FEA545C05D18F
:100580004000494128BF41F0004130BD14F58004CE
:100590003CBF01F5801130BD01F0004545F0FE4142
:1005A00041F470014FF0000030BD7FEA645C1ABF77
:1005B000194610467FEA655C1CBF0B46024650EAAE
:1005C000013406BF52EA033591EA030F41F40021DA
:1005D00030BD00BF90F0000F04BF0021704730B560
:1005E0004FF4806404F132044FF000054FF0000135
:1005F00050E700BF90F0000F04BF0021704730B5F6
:100600004FF4806404F1320410F0004548BF4042CA
:100610004FF000013EE700BF42004FEAE2014FEA1F
:1006200031014FEA02701FBF12F07F4393F07F4FFA
:1006300081F06051704732F07F4208BF704793F0FD
:100640007F4F04BF41F40021704730B54FF4607410
:1006500001F0004521F000411CE700BF50EA010213
:1006600008BF704730B54FF000050AE050EA0102BC
:1006700008BF704730B511F0004502D5404261EB2C
:1006800041014FF4806404F132045FEA915C3FF46D
:10069000D8AE4FF003025FEADC0C18BF03325FEA0A
:1006A000DC0C18BF033202EBDC02C2F1200300FABB
:1006B00003FC20FA02F001FA03FE40EA0E0021FAE0
:1006C00002F11444BDE600BF53B94AB9002908BF7E
:1006D00000281CBF4FF0FF314FF0FF3000F00CB886
:1006E000ADF1080C6DE904CE14F093FADDF804E0E6
:1006F000DDE9022304B07047704700BF10B5054C18
:10070000237833B9044B13B10448AFF300800123BD
:10071000237010BDD803002400000000B05A010867
:1007200008B5034B1BB103490348AFF3008008BD74
:1007300000000000DC030024B05A0108684620F0E5
:1007400007018D46FEE700BF0C4A08B50C4B9342EB
:1007500004D0D21A0B49184613F070FE0A4A0B4B0C
:10076000934204D0D21A0021184613F023FE05F05C
:1007700059FE13F03DFE00F041F8FEE7D8030024D7
:1007800000000024EC5A0108F43B0024D8030024A4
:10079000704700BF2DE9F041164682B00546154866
:1007A0000F4600F05FF91349134801F0FDFEF6B162
:1007B000002401AA69464FEA8408D5E9003000EB1D
:1007C000840C0D4803EB84030134DCED000A93ED47
:1007D000000A01F0EFFF009AA642D7E9001301EBEF
:1007E000080C4344CCF80020019A1A60E1D102B011
:1007F000BDE8F081E8040024F403002408B50C48A7
:1008000000F0AEF80A490B4801F05EFE08490A48BC
:1008100001F0A0FA0949064802F05CFA044A0549C9
:10082000054801F0DBFB212005F000FCF6E700BFE6
:10083000E8040024F4030024E004002495070008E1
:1008400041486FF0F411414A38B500244FF60B735C
:10085000C0E90041C0E902113D4903858387A0F842
:100860005830A0F88430A0F8A030A0F8B43044612B
:1008700004624463846444660467C0F89040C0F82E
:10088000AC40C0E90B44C0E91044C0E91744C0E9DA
:100890002244C0E92944C0E92E44C0F8C040A0F871
:1008A000E030A0F8FC30A0F81031A0F83431A0F806
:1008B0005831A0F87C31C0F8EC40C0F80841C0F8CD
:1008C0001C41C0F84041C0F86441C0F8884180F83C
:1008D000A441C0F8B041C0E93944C0E94044C0E98E
:1008E0004544C0E94E44C0E95744C0E96044C0E90A
:1008F0006744C0E96A4413F061FA164B4FF416617D
:100900004BF68030144A03F1AC0C586013481C605D
:10091000C3F8A84083F8C440C3F8C84083F8CC406B
:1009200083F8E440C3F8BC00C3E904110021C3F814
:10093000E8100121C3E90244C3F8C010C3E93744F9
:100940000FCA8CE80F0038BDE80400240000002422
:1009500091070008F4030024EC4E010800803B4797
:1009600010B504468AB0002102F096FA0421204610
:1009700002F0B8F9204602F0B1F9052084ED660ACC
:1009800002F092F903460420ADF8043002F08CF92D
:1009900003460620ADF8083002F086F903462046EB
:1009A000ADF80C3002F0BAF9019904F17400DDE9F8
:1009B000022303F05DFC082002F076F903460720CD
:1009C000ADF8103002F070F903460920ADF814308C
:1009D00002F06AF903462046ADF8183002F09EF99D
:1009E000049904F1D000DDE9052303F041FC012066
:1009F00002F05AF903462046ADF81C3002F08EF999
:100A0000079904F5967003F09FFC022002F04CF960
:100A100003462046ADF8203002F080F9089904F52D
:100A2000A87003F091FC032002F03EF90346204633
:100A3000ADF8243002F072F9099904F5BA7003F0A8
:100A400083FC00230549064A84F8A431C4F8B03178
:100A5000C4E96A33C4E967120AB010BD00983AC00D
:100A6000000000C010B50446743003F02FFC04F100
:100A7000D00003F02BFC04F5967003F07BFC04F52A
:100A8000A87003F077FC04F5BA70BDE8104003F0DD
:100A900071BC00BF802070474020704749424FF42E
:100AA00080621030C9B213F085BC00BF704700BF30
:100AB0000120704710B504464FF4826113F083F9AA
:100AC000204610BD1378002B6FD02DE9F04F07465C
:100AD00036480C4685B0456841782E460078254654
:100AE000203BDCB25E2C58D8002956D06FF0004C69
:100AF0002C4601EB050913FB01C306EB430303F18D
:100B0000020EB3F80280002847D0B44692462E4623
:100B1000CDE902E93F2C3A464FF00003E346CCBF53
:100B200000250125CDE9008103E00133013298421F
:100B300025D07F2AF9D8002DF7D000994FEAD40CA0
:100B40004FF0010904F0070E01FA03F802EBCC1C88
:100B5000174909FA0EFE18F4004F03F101038C4403
:100B600002F101029CF8109049EA0E0829EA0E09E8
:100B700014BF8CF810808CF810909842D9D10134B1
:100B8000039BDC460199A34204D0029B33F8028FF9
:100B90000293BFE735465246664612F8013F0744C6
:100BA000002B9DD105B0BDE8F08F704754000024A4
:100BB0009C0600242DE9F0474FF0B00884B00546AC
:100BC00000F1080700F18F0600F28F494FF47A74A4
:100BD0004FF0000A297B022303AA009438468DF8BF
:100BE0000CA08DF80D8004F027F8297B022303AABE
:100BF00000943846ADF80CA004F01EF84FF4805C69
:100C0000297B02230094A6F1800403AA3846ADF89C
:100C10000CC004F011F84FF47A7014F801CF4FF0C3
:100C2000400E297B0223009003AA38468DF80CE081
:100C30008DF80DC004F000F8B442ECD104F1800648
:100C400008F101084E455FFA88F8BFD104B0BDE84D
:100C5000F08700BF2DE9F04F89B00D7808AC9DF802
:100C6000488004E90C00002D00F0B4809DF818B015
:100C70002C46079B8A4606469DF819205D4605933B
:100C8000A4F120095FFA89F35E2B00F2A780336894
:100C90007149DB688B4240F0AB808020B3882B44E5
:100CA000834200F39B8033686C499B688B4240F021
:100CB000A4804020F788BB18834200F38F80B1885E
:100CC000002A66D06FF00043059802FB093302FB4F
:100CD000092900EB43030238B3F802C000EB490BCB
:100CE000384603F10209002D4FD043468846CDE92E
:100CF00001B419465446CDE903273F28CDF80090AA
:100D00004246A14694BF4FF0000A4FF0010A00236B
:100D10000C460EE049B902EBC7170BFA0EFE37443A
:100D2000397C04B341EA0E01397401330132AB421C
:100D300020D00CFA03F77F2A94BF51464AF00101F4
:100D400000F0070E4FF0010B17F4004F4FEAD007E9
:100D5000E0D10029E9D102EBC7170BFA0EFE3744A8
:100D6000397C002CDED0013321EA0E010132AB4286
:100D70003974DED12146019B4C46DDF800900130EC
:100D80004B452DD039F802CFB7E7CB4509F1020921
:100D9000FBD105EB010931682F48CB681FFA89F9AF
:100DA000834241D1B9F1800F28BF4FF07F098B6892
:100DB0002A49A6F804908B4224D13F2F00D93F271F
:100DC000F7809AF80000A04205D11AF8014F002CD4
:100DD0007FF456AF002009B0BDE8F08F0024F0E7A3
:100DE0000B46A2464146029C9846DDE90327D0E720
:100DF000009230469847009A50E700923046984754
:100E0000009A57E70092304698478742009AD7D316
:100E1000336812499B688B42D1D000923046984784
:100E2000431E009A9FB2CBE7009230469847814517
:100E30003168009ABBD3CB680748834208D030465C
:100E4000984700F1FF3931681FFA89F9009AAEE737
:100E50004FF07F09ABE700BF950A0008990A000828
:100E60002DE9F04F87B0A1F1200906AC9DF8407044
:100E700004E90C005FFA89F35E2B7CD8036888468E
:100E8000634A0646DB689DF8105093429DF8114076
:100E900040F094808020B3882B4483426BDC33681D
:100EA0005C4A9B68934240F08B804020F288131983
:100EB000834260DCB6F804A0002C64D06FF00043DD
:100EC0000599944604FB093304FB094401EB4303F1
:100ED000023903F1020901EB440B5C88002D4ED06E
:100EE0004146CDE902B2BCF13F0FCDF80490524625
:100EF0004FF0000394BF4FF000084FF00108A146E7
:100F00000EE04CB902EBC0100BFA0EFE3044047C2C
:100F100007B344EA0E04047401330132AB4220D01B
:100F200009FA03F07F2A94BF444648F001040CF00C
:100F3000070E4FF0010B10F4004F4FEADC00E0D138
:100F4000002CE9D102EBC0100BFA0EFE3044047CF9
:100F5000002FDED0013324EA0E040132AB420474C8
:100F6000DED1DDF804900CF1010C029B4B4522D040
:100F700039F8024FB7E7002007B0BDE8F08FCB4546
:100F800009F10209FBD1336805EB0A042048D9684E
:100F9000A4B2814227D1802C28BF7F249B681D49A1
:100FA000B4808B420FD13F2A00D93F224046F280C5
:100FB00007B0BDE8F08F039A8846E4E798476AE7F0
:100FC0003046984772E7019230469847019A82422C
:100FD000ECD333680F4A9B689342E6D0304698477B
:100FE000431E9AB2E2E70192304688478442336852
:100FF000019AD3D3D9680648814206D03046884743
:10100000441E3368A4B2019AC8E77F24C6E700BF34
:10101000950A0008990A00082DE9F04F0746104686
:101020008BB0994610F8013B92468B46149D159C57
:101030009DF858801BB1FFF733F9431C9BB299F818
:10104000002099F801E012FB03F3B5F900C00FFA94
:101050008EF6B5F904201BB2B5F9060023EAE37158
:10106000B5F90230082C00F2BE81DFE814F0F5007B
:1010700025012E013C014501510163016A0109006E
:1010800000286244B980B8BF0130521AFE8003EBD9
:10109000600095B2A0EB56033D809CB27C80DBF8EB
:1010A0000030B649DA688A4240F0F180802D28BFCE
:1010B0007F259A68B24BABF804509A42049340F0F3
:1010C000A4813F2C00D93F24D9F80430ABF8064066
:1010D0009AF8005099F8006099F801200893002DC3
:1010E00000F0B6802C46454609970391A4F12008EC
:1010F0005FFA88F35E2B00F23481DBF8003003994D
:10110000DB688B4240F034818020BBF804303344EC
:101110009842C0F22681DBF8003004999B688B422C
:1011200040F030814020BBF80670BB189842C0F2F6
:101130001881BBF80410002A64D06FF000430898AF
:1011400002FB083302FB082800EB43030238B3F824
:1011500002C000EB4809384603F10208002E4DD0CA
:10116000CDF808900797CDE9054254463F28CDF8C1
:1011700004800A464FF0000394BF4FF000094FF07F
:10118000010988460EE049B902EBC7170AFA0EFEBC
:101190005F44397C05B341EA0E01397401330132F1
:1011A0009E4220D00CFA03F77F2A94BF494649F0AB
:1011B000010100F0070E4FF0010A17F4004F4FEA4B
:1011C000D007E0D10029E9D102EBC7170AFA0EFED9
:1011D0005F44397C002DDED0013321EA0E0101325B
:1011E0009E423974DED14146029BDDF80480013015
:1011F000984500F0B88038F802CFB7E7C14508F14C
:101200000208FBD106EB0108DBF800100398CB685D
:101210001FFA88F8834240F0CF80B8F1800F28BFD2
:101220004FF07F088B680499ABF804808B4240F044
:10123000AE803F2F00D93F27ABF806709AF80030F8
:10124000A34204D11AF8014F002C7FF44FAF099F3D
:1012500038460BB0BDE8F08F002AB980FE80B8BFD9
:1012600001320028B8BF01300CEB620503EB6004CB
:10127000DBF80030A5EB61054049A4EB5604DA68C1
:10128000ADB2A4B28A423D807C803FF40FAF0191A1
:10129000584690478542DBF800300199FFF409AFCA
:1012A000DA688A4200F0C98058469047431E019987
:1012B0009DB2DBF80030FCE61FFA8CF5B9809CB2D9
:1012C000FE80A7F800C07B80E9E6002A9CB27B8004
:1012D000B8BF0132FE80B9800CEB6202A2EB610361
:1012E0009DB23D80DBE662449CB27B80531AFE8057
:1012F000B9809DB23D80D2E61C181FFA8CF5B980EA
:10130000A4EB0E04FE80A7F800C0A4B27C80C6E661
:10131000002A03EB0004FE80B8BF0132A4EB0E04E8
:101320000CEB6202A2EB61039DB2B980A4B23D80D6
:101330007C80B4E61C186244FE80A4EB0E04531AB1
:10134000F2E700281FFA8CF5B980B8BF0130A7F882
:1013500000C0FE8003EB6000A0EB56039CB27C80D3
:101360009DE600246AE7A246059CDDE9062749E7D9
:10137000019258469847019AC7E600BF950A0008AF
:10138000990A0008019258469847019ACBE60192C3
:10139000584698478742019AFFF44EAFDBF8003079
:1013A00004999B688B423FF446AF01925846984798
:1013B000431E019A9FB23FE70192584698478045E5
:1013C000DBF80010019AFFF42DAFCB68039883423D
:1013D00030D05846984700F1FF38DBF800101FFA6C
:1013E00088F8019A1EE7DBF8000000231549C2685F
:1013F0003B608A427B6022D182681C461248ABF86F
:101400000430824204903FF45FAE01915846904709
:10141000A04201993FF658AEDBF80030049A9B6871
:1014200093423FF450AE019158469847441E0199AB
:10143000A4B249E64FF07F08F4E67F2539E61D4661
:101440001C4624E7950A0008990A00087F2914D849
:101450003F2A12D84FEAD20C02F0070201EBCC115E
:101460004FF0010C08440CFA02F1027C13B10A435C
:101470000274704722EA0102027470472DE9F04FAE
:1014800083B05D1A0C9E002D9DF83490A6EB0208E7
:10149000B8BF6D42B8F1000FB8BFC8F100088B4269
:1014A00094BF4FF0FF3A4FF0010A9642A5EB080EA9
:1014B0004DD84FF0FF347F2B019412D83F2E10D817
:1014C000F40806F007074FF0010C03EBC4140CFA04
:1014D00007FC0444277CB9F1000F3FD047EA0C0712
:1014E00027748B4201D1964229D0C8F100077F2989
:1014F00014D83F2A12D8D40802F0070B4FF0010C81
:1015000001EBC4140CFA0BFC044494F810B0B9F1CC
:10151000000F17D04BEA0C0B84F810B0B7EB4E0F4E
:101520004FEA4E0402DAAEEB080E5144A54202DD4A
:10153000019CAE4422449942D9D19642D7D103B0FE
:10154000BDE8F08F2BEA0C0B84F810B0E6E701241D
:101550003F2E0194C9D87F2BB2D9C6E727EA0C07E2
:101560008B422774BFD0C0E72DE9F04F2DED068BDD
:1015700083B0164698460D469DF850700190DDE9FF
:1015800012231344139A002A04DA52421392129A35
:101590001293134607EE903AB8EEE76BDDED127A40
:1015A0009FEDC15BB8EEE77B9FEDC14B27EE057B5E
:1015B00026EE056B87EE040B86EE045BF7EEC08B20
:1015C000B0EE680AB7EEC5AB12F0FAFC07EE908AEF
:1015D000B0EE408AB0EE680AF8EE679A12F0F8FBB7
:1015E000F0EE408AB0EE4A0A12F0EAFCB0EE409A01
:1015F000B0EE4A0A12F0ECFB68EEE98A20EE690AC6
:1016000029EE888A29EE899A70EE687AF0EE006AEF
:1016100039EE487A67EEA77AE7EE077AF4EEE67AD3
:10162000F1EE10FA06D5139BB42B40F397804FF0E0
:10163000010901E04FF000090124AE46C8F10003A2
:10164000CDF80090A4EB080C2146224600200CFAAD
:1016500004FC2546B946F046009F002F69D1594247
:1016600006EE900A424207EE901AB8EEE66A06EEDF
:10167000903AB8EEE77A07EE902A66EE084A139A97
:10168000F8EEE77A27EE284AB42AF8EEE66A67EE23
:10169000885A74EEC43A26EEA85A26EE096A66EE17
:1016A000806A67EE897A27EE007AF5EEC03A40F359
:1016B0000381F1EE10FA00F15D8176EE473A74EEA7
:1016C000C54AF5EEC03AF1EE10FAF5EEC04ACCBFCD
:1016D00001220022F1EE10FA00F1558136EE666A21
:1016E00035EEC55AB5EEC06AF1EE10FAB5EEC05A45
:1016F000CCBF01210021F1EE10FA00F14D8177EE0F
:10170000E66AF5EEC06AF1EE10FACCBF01240024BF
:1017100075EEC45AF5EEC05AF1EE10FA00F12581CB
:1017200077EEC77AF5EEC07AF1EE10FACCBF01255C
:101730000025002A40F0928000296CD1F4B9002DD8
:101740003ED160455EDB01300CEB400ED8420EF11D
:10175000010E08D0634558DB002B0DDD03B0BDEC56
:10176000068BBDE8F08F63454FDB002BF4DA0133C5
:101770000EEB430E0EF1010EF4466DE703EB080E7F
:10178000A6EB000ABEF17F0FD9D8BAF13F0FD6D829
:101790004FEADA0B019F0AF0070A0EEBCB1E4FF05F
:1017A000010BBE440BFA0AFB9EF810A0B9F1000F22
:1017B00000F0B8804AEA0B0A8EF810A0002DC0D0C5
:1017C000A8EB030EA6EB000ABEF17F0FB9D8BAF161
:1017D0003F0FB6D84FEADA0B019F0AF0070A0EEB6B
:1017E000CB1E4FF0010BBE440BFA0AFB9EF810A073
:1017F000B9F1000F00F091804AEA0B0A60458EF8BB
:1018000010A0A0DA6345E646A6DA01330EEB430EDC
:101810000EF1010EA0E703EB080E00EB060ABEF185
:101820007F0F8BD8BAF13F0F88D84FEADA0B019FB0
:101830000AF0070A0EEBCB1E4FF0010BBE440BFA69
:101840000AFB9EF810A0B9F1000F5ED04AEA0B0A1D
:101850008EF810A0002C3FF472AF8FE7A8EB030EB8
:1018600000EB060ABEF17F0F3FF666AFBAF13F0FFD
:101870003FF662AF4FEADA0B019F0AF0070A0EEB60
:10188000CB1E4FF0010BBE440BFA0AFB9EF810A0D2
:10189000B9F1000F31D04AEA0B0A8EF810A00029E6
:1018A0003FF44CAFB7E700BF7A008BFCFA21094048
:1018B0000000000000806640F1EE10FA4BD4009A60
:1018C00074EEC54AF5EEC04AF1EE10FA39D40021A3
:1018D00035EEC55AB5EEC05AF1EE10FA27D4002401
:1018E00075EEC45AF5EEC05AF1EE10FA3FF518AF96
:1018F0000025002A3FF420AFB0E72AEA0B0A8EF851
:1019000010A000293FF41AAF85E72AEA0B0A8EF8E7
:1019100010A0002C3FF413AF30E72AEA0B0A8EF830
:1019200010A00EE72AEA0B0A8EF810A007E777EE60
:10193000E66AF5EEC06AF1EE10FACCBF012400248D
:10194000CEE736EE666AB5EEC06AF1EE10FACCBFAD
:1019500001210021BCE776EE473AF5EEC03AF1EE00
:1019600010FACCBF01220022AAE70125002A3FF489
:10197000E3AE73E774EEC54A0122F5EEC04AF1EE1C
:1019800010FA7FF5ABAE35EEC55A0121B5EEC05A5F
:10199000F1EE10FA7FF5B3AE0124B9E62DE9F04F70
:1019A00085B096469C469DF840400E9B9DF83C2095
:1019B0007CB361452AD89E4525D87F29754694BFBA
:1019C0000027012706E048EA060884F81080013560
:1019D000AB4218D3EC083F2D05F007084FF0010685
:1019E00001EBC414F3D8002FF1D1044406FA08F631
:1019F00094F81080002AE6D1013528EA0608AB42A7
:101A000084F81080E6D201318C45D4D205B0BDE80F
:101A1000F08FACEB0109B9F1000FB8BFC9F10009B3
:101A2000BCF17F0F94BF00270127BEF13F0F94BF89
:101A30004FF0000B4FF0010B6145C0F02F814FF0CC
:101A4000FF3AA7B9BBF1000F11D14FEADE040EF047
:101A5000070501260CEBC414AE400444257C002A83
:101A600000F05C81354325744FF0000B5F46614503
:101A700026D0C84675460E4601970E937F2E10D885
:101A80003F2D0ED8EC08012706EBC414031905F00E
:101A9000070407FA04F41F7C002A00F0138127438F
:101AA0001F744FEA4804002CC8BF5644A14501DD0D
:101AB000C844013DB445E1D1AE45DFD1019F0E9B45
:101AC000A3EB0E09B9F1000FB8BFC9F100099E459B
:101AD00080F001813F2BC9F1000894BF002401244C
:101AE000002F40F03381002C40F03081012401941C
:101AF000DC0803F0070501260CEBC414AE400444D7
:101B0000257C002A00F012813543257400249E456F
:101B10002DD0C24675466646CDE902B47F2E14D854
:101B20003F2D12D8EC084FF0010B05F0070706EB2C
:101B3000C4140BFA07F7044494F810B0002A00F01C
:101B4000C5804BEA070B84F810B0BAEB480F4FEA98
:101B5000480402DAA8EB0908013E002C01DA019CD6
:101B60002544B445DAD1AB42D8D1DDE902B4A1EBCA
:101B70000C08B8F1000FB8BFC8F10008614540F289
:101B8000C0807F294FF0010994BF002601268CB93F
:101B900086B9DC0803F00705012601EBC414AE404A
:101BA0000444257C002A00F0C580354325740026B6
:101BB000614526D047461D460196BCF17F0F13D8DC
:101BC0003F2D11D8EC084FF0010A0CEBC414061994
:101BD00005F007040AFA04F496F810A0002A6CD065
:101BE0004AEA040A86F810A07C00002CC8BFCC4446
:101BF000A04501DD4744013D6145DED19D42DCD178
:101C0000019EAEEB030CBCF1000FB8BFCCF1000C91
:101C10009E456CD9CCF10007BBF1000F40F09280DB
:101C2000002E40F08F804FF001094FEADE040EF0E5
:101C30000705012601EBC414AE400444257C002AAC
:101C400070D0354325749E453FF4E0AEB8460D464E
:101C50007F2D11D83F2B0FD8DC0803F0070A01268F
:101C600005EBC41406FA0AF6044494F810A0FAB17D
:101C70004AEA060A84F810A0B8EB470F4FEA470477
:101C800002DAA7EB0C07013D002CB8BF4B44A94278
:101C9000DED19E45DCD105B0BDE8F08F4FF0010AE2
:101CA000002F7FF4E6AEBBF1000F3FF4CEAEE0E6CE
:101CB0002AEA060A84F810A0DEE72AEA040A86F86F
:101CC00010A091E727EA04071F74EAE62BEA070B46
:101CD00084F810B039E73F2BC9F1000894BF002405
:101CE00001245FBB54BB4FF0FF34019400E7CCF1FB
:101CF00000074FF0FF39BBF1000FA4D1002E94D0A4
:101D0000A1E77F294FF0FF3994BF00260126002C60
:101D10007FF44EAF002E3FF43CAF49E725EA0605BD
:101D20002574A1E625EA060525748CE725EA060553
:101D30002574EBE625EA0605257438E74FF0FF35F4
:101D40000195E4E6B8464FF0010980E70125C24657
:101D50000195DFE6F0B50C2091B000F0A5FF034639
:101D60000B209D4CDDB2C3F3072600F09DFF00233E
:101D7000C2B2C0F3072000270AA962F307033C227E
:101D80000A9760F30F2304F108008DF83C2065F3F7
:101D900017430225227366F31F630D974FF47A767B
:101DA000CDE90B3510238DF8383002F0B1FE4FF439
:101DB0002E4303AA009604F10800217BADF80C30F5
:101DC0002B4602F039FF4FF4554303AA0096ADF8B5
:101DD0000C3004F108002B46217B02F02DFF4FF45C
:101DE000004303AA0096ADF80C3004F108002B461E
:101DF000217B02F021FF4FF4284303AA0096ADF89F
:101E00000C3004F108002B46217B02F015FF4FF443
:101E10007C5303AA0096ADF80C3004F108002B4661
:101E2000217B02F009FF4FF45A4303AA0096ADF854
:101E30000C3004F108002B46217B02F0FDFE4FF42C
:101E4000905303AA0096ADF80C3004F108002B461D
:101E5000217B02F0F1FE4FF4534303AA0096ADF844
:101E60000C3004F108002B46217B02F0E5FE2B46E6
:101E700003AA009604F10800217BADF80C7002F073
:101E8000DBFE4FF4804303AA009604F10800217B97
:101E9000ADF80C302B4602F0CFFE4FF4264303AAD8
:101EA0000096ADF80C3004F108002B46217B02F0BF
:101EB000C3FE4FF4244303AA0096ADF80C3004F19E
:101EC00008002B46217B02F0B7FE4FF40D4303AA16
:101ED0000096ADF80C3004F108002B46217B02F08F
:101EE000ABFE4FF4A05303AA0096ADF80C3004F1FA
:101EF00008002B46217B02F09FFE4FF4214303AAEA
:101F00000096ADF80C3004F108002B46217B02F05E
:101F100093FE4FF4484303AA0096ADF80C3004F149
:101F200008002B46217B02F087FE4FF4014303AAF1
:101F30000096ADF80C3004F108002B46217B02F02E
:101F40007BFE4FF40F4303AA0096ADF80C3004F16A
:101F500008002B46217B02F06FFE4FF4594303AA81
:101F60000096ADF80C3004F108002B46217B02F0FE
:101F700063FE4FF4145303AA0096ADF80C3004F13D
:101F800008002B46217B02F057FE4FF45B4303AA67
:101F90000096ADF80C3004F108002B46217B02F0CE
:101FA0004BFE4FF4505303AA0096ADF80C3004F1E9
:101FB00008002B46217B02F03FFE00962B46217B3A
:101FC00003AA04F108004FF42F44ADF80C4002F0CE
:101FD00033FE11B0F0BD00BF9C0600242DE9F04F88
:101FE0000F468FB04FF480620021C34812F0E2F92F
:101FF000D7F8D030C14A202106A812F0A5F9002157
:1020000006AA0846FEF75EFDBD4B03F180011A6883
:1020100042F0083243F8042B8B42F8D1D7E936322C
:10202000032A9146B8BF4FF00309A9F10308984568
:1020300080F2608116251026B24C0FE008F10108ED
:10204000D7F8D830434540F3F880C84506F10A0672
:1020500005F10A0500F3F180D7F8DC2008EB48030E
:10206000D7F8D4A09045A5F108010AEB830B0CD159
:1020700097F8C42000200393012A02910CBFA24AC2
:10208000A24AFEF71FFDDDE902135AF823200A20B9
:10209000FEF718FD9BF80430002BCFD1DBF8083099
:1020A0003F2E9FED9B7A07EB8303D3ED1E7A67EEFD
:1020B000877AFDEEE77A17EE90EA0BD8F30806F080
:1020C0000701012204EBC3138A4093F888100A43E6
:1020D00083F8882046200122F30806F007013F2EEE
:1020E00000EBC313104402FA01F203D82344197C15
:1020F0000A431A747828EED1B54200F2EF803F2DE2
:1021000000F3F2804FF0FF3AEA0805F007010123DF
:1021100004EBC2128B4092F888100B4382F888308F
:102120003346D90803F0070C01223F2B04EBC11101
:10213000534402FA0CF205D891F888C042EA0C0226
:1021400081F88820AB42ECD13F2D0BDCEA0805F08A
:102150000701012304EBC2128B4092F856100B4387
:1021600082F85630EB0805F0070101223F2D00EB05
:10217000C31300F1FF3002FA01F203D82344197CA3
:102180000A431A744628EDD1B542C0F0A1803F2E13
:102190004FF0FF3A0BD8F20806F00701012304EBD9
:1021A000C2128B4092F856100B4382F85630B5425B
:1021B00013D02B46D90803F0070C01223F2B04EB68
:1021C000C111534402FA0CF205D891F856C042EA04
:1021D0000C0281F85620B342ECD1BEF1000F7FF71C
:1021E0002DAF0EF1460EA246B5421BD37F283246D4
:1021F00094BF002401244FF0010CD30802F0070122
:102200003F2A00EBC31302EB0C0B0CFA01F106D8CA
:10221000534424B993F810C041EA0C011974AA423E
:102220005A46E8D101308645DED208F10108D7F8D8
:10223000D830544643453FF708AFDFF8DC804FF015
:10224000B009A2464FF47A7400259AF80C100223C4
:1022500005AA304800948DF814508DF8159002F0BE
:10226000EBFCADF814504FF480559AF80C10022393
:1022700005AA2848009402F0DFFCADF81450A8F13C
:1022800080059AF80C10022305AA2248009402F057
:10229000D3FC4FF47A7415F8016F40279AF80C10AC
:1022A000022305AA1B4800948DF814708DF8156060
:1022B00002F0C2FC4545ECD109F1010905F18008A5
:1022C0005FFA89F9B9F1B80FBCD10FB0BDE8F08F52
:1022D0003F2E4FF0010A7FF65EAF6AE73F2D4FF0C9
:1022E000010A7FF711AF1BE7B5423FF43BAF4FF058
:1022F000FF3A15E7034CA0E7AC060024404F010865
:102300002C0700249C060024484F01084C4F01086C
:1023100000004842A40600242B07002410B40648FD
:102320000023064C064A20602046A36005495DF85C
:10233000044B11F043BD00BFD84F01089C06002498
:1023400000000024AD0A0008002330B480F8C43037
:1023500080F8CC10C0F8DC3041B1154C0123154A8F
:10236000C0F8D830C0E9344230BC7047D0F8C8500B
:102370009D4212DB022D15DC0F4A05EB450102EBF5
:10238000810352F82140D3E90123C0F8C850C0F8B6
:10239000D830C0E9344230BC70470223074A084CA9
:1023A0001D46F2E70423074A074C0D46EDE700BF40
:1023B0005C4F0108345001081050010840500108DA
:1023C000544F010894500108504F0108DFED146A82
:1023D000F7EE005AD0ED224AB1EE005AD0ED0B7A5A
:1023E00084EEA66A90ED2F7A0E4AC5EE276AC5EEF6
:1023F000867A67EEA67A67EE877AFCEEE77A17EEC2
:10240000903A934209D8032B98BF04230268436093
:102410009A4201D30023036070471346F6E700BFDA
:1024200000007042007701002349F7EE006A234A5A
:10243000D0F8C0309FED227A90ED266A01FB03238D
:1024400090ED285AB4EEC76A07EE903A76EEC56A68
:10245000DFED1C4AF8EE677A90ED2F4AF1EE10FAA4
:1024600001FB032267EEA47A05EE902A48BFB0EE86
:10247000476AC0F8C020B0EE667AF8EE655AA5EE5D
:10248000277AC4EE067A65EEA45AE5EE256A27EEB1
:10249000877A67EEA67ABCEEC77AFCEEE77A17EE8B
:1024A000102A17EE903A012A38BF0122012B38BFBB
:1024B0000123C0E9042370470D6619005FF36E3CE9
:1024C000CDCCCC3D0000802F38B50D4604462F4AB8
:1024D00000212F4811F06EFFD5F898014FF07C5382
:1024E0002C4D4FF07E522C49C4F8BC00A56304F17A
:1024F00048052A48A361E3612362636200236063A5
:102500002846A1620021E26222633022E363236451
:1025100011F050FF04F1180304F17802D3F800E041
:10252000103353F80CCC103253F8080C53F8041C39
:10253000AB4242F810EC42F80CCC42F8080C42F8DE
:10254000041CEBD1D4ED2B7A0023154A0421F8EEBC
:10255000E77A1448C4F8D4200022C4F8D0002046FA
:10256000C4F8A830C4F8C83084F8CC30C4ED0B7A75
:1025700084F8C43084F8E430C4F8E820C4E93613A1
:10258000FFF724FFBDE83840FFF74EBF00DC050031
:10259000003075C0000020410000F042CDCCCC3DA1
:1025A00094500108504F010870B591F898500E46AC
:1025B0000446FF2D00F0838091F88030002B5AD123
:1025C00000220023C4F8E82084F8E43094F8CC20FA
:1025D00096F8783012BB94F8C420002A68D196F897
:1025E000D41021B1D6F82811002940F0A58073B18C
:1025F000D6F8CC305BB1D4E936210B4423EAE3733F
:102600009A42C4F8DC3002DC013AC4F8DC202046EF
:10261000FFF7DCFEBDE87040FFF706BF002BF6D0E9
:1026200094F8C420D6F8CC30002AE3D0002BEED0AA
:10263000012AECD196F8982007EE903AF7EE006A5E
:102640009FED536AFF2AD4F8E020F8EEE77A04EB16
:10265000820314BFDFED4F5ADFED4F5A93ED067A38
:10266000A7EEA57AC7FE067AC7FEE67AC3ED067A1C
:10267000C3ED1E7ACBE7802DA2D190F8E430002B79
:102680009ED194F8C420002A72D1D4F8DC30D4F85A
:10269000D42003EB430302EB83031A792AB99A6827
:1026A0000123C4F8E02084F8C430FF2D8ED087E7E2
:1026B000002BACD0D6F8CC30002BB9D1A7E7084618
:1026C00000F02CFBB7EE006AD4ED3A6A9FED337A46
:1026D000C6EE007A77EEA67AF4EEC77AC4ED3A7ABF
:1026E000F1EE10FA18DC96F88030002B3FF46EAF54
:1026F00096F89830802B7FF469AF94F8E430002B83
:102700007FF464AF94F8C420002ABED0012A7FF47D
:102710005DAF84F8C43059E794F8E430002B7FF4BF
:1027200055AF94F8CC10204681F00101FFF70CFE64
:10273000012384F8E43049E7D4F8C80009181DD40F
:10274000022920DC164A01EB410502EB850052F814
:102750002550D0E90120C4E934520022C4F8C81041
:10276000C4E9360284F8C420002B7FF441AF4EE761
:10277000012A7FF425AF84F8C43021E70220094AFA
:10278000094D0146E7E711460420084A084DE2E7F3
:10279000000000000AD7233CCDCC4C3D9A99193F4C
:1027A0001050010840500108544F0108945001088E
:1027B000504F010890ED1E7AF6EE005AD0ED1F7AC8
:1027C000BFEE006A37EE077A90ED213A8368F7EEA4
:1027D000006AD0ED203A33EE033A27EE000AD0ED3E
:1027E000282A67EE200A90ED272A2DE9F047056890
:1027F0009246B44C30EE207A0F4604EB850292EDFF
:10280000005A67EE857AE7EE257AC7FE867AC7FE1C
:10281000E67AC2ED007AE3B9AB49AC4AD0F8C060C1
:10282000D0ED256A01FB062890ED2F6A01FB082EEA
:10283000A7490A46C0F8C0E092F800C01832BCF1BF
:10284000000F00F04D810133082BF5D1FFF7ECFDAF
:102850000369013B41688360C368EBB99A4A9C46AF
:10286000D0F8C060994B90ED256A02FB0639D0ED97
:102870002F5A02FB0938974A9646C0F8C0809EF846
:1028800000300EF1180E002B00F090810CF1010CBD
:10289000BCF1080FF3D14369013BDFED8F4A8D4A4C
:1028A000C360B0EE645A8A4B03F1C00893F800C0CD
:1028B000BCF1000F00F0FC80D3ED017AF6EE002AA7
:1028C000D3ED035ABDEEE77AF4EEE25A17EE10CAE2
:1028D000B8EEC76AF1EE10FA0CF1010E04EB8C09A8
:1028E00037EEC66A99ED007ABEFBF1FC01FB1CEEE7
:1028F00004EB8E0E9EED004A34EE474AA6EE047AB3
:10290000F0EE476A00F1DA80B7EE006A36EE656AEB
:1029100036EE066A93ED024A07EE101A77EE847AD5
:10292000B8EE477AB4EEE77AF1EE10FA06D877EE11
:10293000C77AB4EEE77AF1EE10FAF8D9F5EEC07A7C
:10294000C3ED017AF1EE10FA08D577EE877AF5EE4D
:10295000C07AF1EE10FAF8D4C3ED017A93ED047A5F
:10296000F7EE007A75EE875AF4EEE75AC3ED035A94
:10297000F1EE10FA03DB4FF0000C83F800C066EEB6
:10298000867A92F800C035EE275ABCF1000F00F0AD
:102990008C80D2ED017AF6EE002AD2ED035ABDEE1C
:1029A000E77AF4EEE25A17EE10CAB8EEC76AF1EE13
:1029B00010FA0CF1010E04EB8C0937EEC66A99EDA2
:1029C000007ABEFBF1FC01FB1CEE04EB8E0E9EEDCB
:1029D000004A34EE474AA6EE047AF0EE476A6AD41B
:1029E000B7EE006A36EE656A36EE066A92ED024A86
:1029F00007EE101A77EE847AB8EE477AB4EEE77AEB
:102A0000F1EE10FA06D877EEC77AB4EEE77AF1EE77
:102A100010FAF8D9F5EEC07AC2ED017AF1EE10FAAB
:102A200008D577EE877AF5EEC07AF1EE10FAF8D491
:102A3000C2ED017A92ED047AF7EE007A75EE875ACC
:102A4000F4EEE75AC2ED035AF1EE10FA03DB4FF051
:102A5000000C82F800C066EE867A183374EEA74A3E
:102A6000183298457FF422AFF6EE006A0135B7EED2
:102A7000007A8D4228BF002565EE267A64EEA64ACC
:102A8000056037EE637A63EEA77A63EEA43AE7EE69
:102A9000007AE7EE203A67EE837A23EE837AC7ED79
:102AA000007A8AED007ABDE8F087DFED0B7AD4E793
:102AB000DFED097A65E735EEA56A97E735EEA56A99
:102AC00028E700BF003075C00D6619005FF36E3C4B
:102AD000700B0024B00A0024000000000000802FCA
:102AE00007EE90EA5FED035A03EB43024FF0010E4D
:102AF000B8EE677AD0F890C0F6EE007A27EE257A25
:102B000027EE027A27EE277A07EE905AF8EE677AD8
:102B1000E6EE477A90ED017A01F832E003FA0EF220
:102B2000B8EE477AF5EEC07AF1EE10FA0DD577EEF1
:102B3000877AF5EEC07AF1EE10FAF8D4F4EEC77A9F
:102B4000F1EE10FA06DB77EEC77AF4EEC77AF1EE13
:102B500010FAF8DA07EE108A1344F7EE005A1FED68
:102B6000215AB8EE477A01EBC30166EE866A00236C
:102B7000C1ED017A67EE057ACB6035EEE27AC1F8F5
:102B800008C0A2EEA77A66EE877AFCEEE77A17EE27
:102B9000903A042B38BF042307EE903A4B61B8EE0D
:102BA000677AC5EE877AC1ED047A4FE607EE908A20
:102BB0001FED365A0CEB4C034FF00108F8EE676A34
:102BC00007EE101AF6EE007AD0F890E0B8EE477AE9
:102BD00002F8338066EE856A0CFA08F366EE826AC4
:102BE00066EEA76A07EE905AF8EE677AE5EEE67AA7
:102BF000F5EEC07AF1EE10FA0DD577EE877AF5EEA4
:102C0000C07AF1EE10FAF8D4F4EEC77AF1EE10FAC9
:102C100006DB77EEC77AF4EEC77AF1EE10FAF8DA4F
:102C200007EE109A6344F7EE006A1FED545AB8EEAF
:102C3000477A02EBC30226EE256A0023C2ED017A31
:102C400067EE057AD36036EEE27AC2F808E0A2EECB
:102C5000A77A66EE077AFCEEE77A17EE903A042B35
:102C600038BF042307EE903A5361B8EE677AC6EE98
:102C7000877AC2ED047A0EE6094B03F1C0011833DE
:102C800000228B4203F8302CF9D1064B03F1C0012E
:102C900018330022994203F8302CF9D1704700BF55
:102CA000880B0024C80A0024202882B009D8084BC9
:102CB00003EB400213F81030507843EA002002B0D2
:102CC000704701230C2043EA002002B0704700BF88
:102CD000C4500108143001F099BA00BF143001F05B
:102CE00091BA00BF38B500F1140504462DED028BF2
:102CF000284601F079FA284601F084FA2846B0EE19
:102D0000408A01F06DFAD0ED007AF8EE677A88EE2D
:102D1000277ABDEC028B84ED1B7A38BD90ED1B0A3F
:102D2000704700BF10B540F203318EB000244FF65B
:102D30000B7340F20342ADF80810029909A8ADF8F0
:102D40001030ADF824300123ADF80C202246009459
:102D500007940C94CDE90544CDE90A4401F03EFC0A
:102D600004A8012322460399009401F037FC09A826
:102D700001F042FD10B901200EB010BD04A801F011
:102D80003BFD80F00100C0B240000EB010BD00BF9E
:102D90002DE9F04103239AB00125002414934FF646
:102DA0000B78394B064610941193A3F19F63159548
:102DB000A3F57D43ADF84C80CDE916451293FFF79E
:102DC000B1FFA84207463DD002282BD12F4B2A46FF
:102DD0000094CDF84A3040F60133ADF82C80ADF8C0
:102DE0001830234606990E94CDE918450BAD2846B8
:102DF000CDE90C4401F0F2FB2146284601F008FD24
:102E000010A906F1700002F0E3FE214B0FCB85E81C
:102E10000F00326F294606F1140001F0A9F91AB02B
:102E2000BDE8F08140F60132184B06F158001995C3
:102E3000ADF82C200BAD0B991894CDF84A3000F06A
:102E4000A3F8DDE71023114A06A906908DF8283073
:102E50000BAD104BCDF84A2009940294CDE9073010
:102E6000CDE9180402A801F053FE0823029A03A931
:102E70002846ADF80C708DF80E40049705930B941E
:102E800000F0C2F8BCE700BF040204040406040317
:102E9000FC4E01080704010B2DE9F041384B0446B4
:102EA000384D40F20112012604F104082DED028B89
:102EB00082B04560A36003F58133ADF8042040F291
:102EC000027203F5807300202285E36040F60663FA
:102ED0002682A387E662266400918DF8060003F03F
:102EE00055FA054603F0A4F86946074610BB0DB332
:102EF00004F150008DF8066003F0CAF9072D36D1B1
:102F000004F114052046FFF743FF284601F07AF943
:102F10002846B0EE408A01F063F9D0ED007AF8EE71
:102F2000677A88EE277A84ED1B7A02B0BDEC028BBB
:102F3000BDE8F08104F1500003F0AAF9072D02D199
:102F4000002FDDD004E04146204602F08DF99FB10C
:102F500004F12801084601F031FA04F13C01084669
:102F600001F02CFA04F1120000F06AF9C8E74146BA
:102F7000204602F079F9C3E7002DE9D0C0E700BF91
:102F8000050705060508050930B585B00025044686
:102F90000122ADF80C102B460399009501F01EFBA1
:102FA0000121204601F034FC012003F03FF82946BE
:102FB000204601F02DFC012003F038F801212046C5
:102FC00005B0BDE8304001F023BC00BF10B5C2F32E
:102FD000002384B00C46017C8DF80D2043EA4402A6
:102FE000FA2402238DF80C2003AA009401F024FE99
:102FF00018B10124204604B010BD04460A2003F095
:1030000015F8204604B010BD034670B5044684B0E0
:1030100043F8042BFA2507C983E80700A1791E238A
:10302000009503AA1A31ADF80C3020460223C9B22C
:10303000217401F001FE10B1012004B070BD0A201E
:1030400002F0F4FF4FF4B85200950223ADF80C20C3
:10305000204603AA217C01F0EFFD0028ECD10A20D4
:1030600002F0E4FF41F2027200950223ADF80C2059
:10307000204603AA217C01F0DFFD0028DCD10A20D4
:1030800002F0D4FF042200950223ADF80C20204664
:1030900003AA217C01F0D0FD0028CDD10A2002F046
:1030A000C5FF062200950223ADF80C20204603AA96
:1030B000217C01F0C1FD0028BED10A2002F0B6FF3C
:1030C00041F2082200950223ADF80C20204603AA05
:1030D000217C01F0B1FD0028AED10A200A2602F0C1
:1030E000A5FF0095022303AA217C2046ADF80C60C1
:1030F00001F0A2FD00289FD1304602F097FF23790E
:103100000C220095002B217C8DF80C20204614BF4A
:10311000622342236A448DF80D30022301F08CFDB6
:10312000002889D1304602F081FFA368009520462F
:10313000E268217C1343627943EA4213227982F0E8
:10314000010243EA82130E228DF80D3002238DF81E
:103150000C2003AA01F070FD00287FF46DAF30460B
:1031600002F064FF102200950223ADF80C202046E7
:1031700003AA217C01F060FD00287FF45DAF30469A
:1031800002F054FF122100950223ADF80C1003AA9F
:10319000217C204601F050FD00287FF44DAF3046E1
:1031A00002F044FF01220921204604B0BDE870402E
:1031B000FFF70CBF70B586B000240125102602A9C8
:1031C0004FF480521C480194CDE90256CDE90454D5
:1031D0000BF00EF8642003F0B7FA022302A94FF4B3
:1031E0008052154802930594CDE903650BF000F871
:1031F000042302A94FF480520F480396CDE904340A
:10320000032302930AF0F4FF40F23223042202A9BE
:103210000948019310230495CDE90223019B4FF443
:10322000805205930AF0E4FF40F6060102480AF0D6
:10323000FFFF204606B070BD3C0C002400000000DB
:1032400070B51D4B88B008224FF4006400211B4E5E
:103250001A614FF0020C03920A225C62202406924B
:103260004022054699600320196210215E60012604
:10327000C3E905424FF4C072DE60DA6107229FEDB8
:103280000C7BCDE900C20422CDE904016946181D7A
:10329000029283ED0A7B0AF081FF30B9044628468A
:1032A000FFF788FF204608B070BD304608B070BDFB
:1032B0000010000000000000380C002440410052C3
:1032C0005E4A0023F0B514688FB00A93002C40F0DA
:1032D000B2805B4B012103260C2511600227D3F835
:1032E000D420584842F48052C3F8D420D3F8D420D4
:1032F00002F480520092009AD3F8E02042F01002CB
:10330000C3F8E020D3F8E02002F010020192019A05
:10331000D3F8E02042F04002C3F8E020D3F8E020E8
:1033200002F040020292029AD3F8E02042F0080232
:10333000C3F8E020D3F8E02002F008020392039AD9
:10334000D3F8E02042F48072C3F8E020D3F8E02004
:1033500002F480720492049AD3F8E02042F08002D2
:10336000C3F8E020D3F8E02002F080020592059A2D
:10337000D3F8E02042F02002C3F8E020D3F8E020A8
:1033800002F020020692069AD3F8E02042F00402EE
:10339000C3F8E0204FF68372D3F8E0300B9603F0C9
:1033A00004030C9507930223079908A9CDE9082384
:1033B00004F0E2FD48F2371308A9234808930C955E
:1033C0000997CDE90A4604F0D7FD4CF2037308A92A
:1033D0001E480893CDE90974CDE90B6504F0CCFDD6
:1033E00040F2FF6308A91A480893CDE90974CDE9B2
:1033F0000B6504F0C1FD4FF60C7308A9154808933E
:10340000CDE90974CDE90B6504F0B6FD4FF63F0335
:1034100008A911480893CDE90974CDE90B6504F0BA
:10342000ABFD202308A90B4809970C950893CDE91B
:103430000A4604F0A1FD0FB0F0BD00BF300C00241F
:10344000004402580010025800180258000C02589C
:1034500000200258001C0258001402582DE9F04FB9
:103460008BB0DFF8588106464E4800AF0D46144633
:1034700002F0ACFC4369D8E90621002A00F0E081A3
:10348000002940F09D800222D8F804A04FF00809DE
:103490007A62BAF1000F00F09D80A200E946012B8C
:1034A00002F1070222F00702ADEB020D6846ADEB18
:1034B000020DEB4600F0CB81022B00F05982002B6D
:1034C00040F0BA81002C00F0B7811A46D8ED0C6AA2
:1034D0009FED357A0146331D36F922C0083107EEDB
:1034E00090CA33F922C00232F8EEE77A944267EECE
:1034F000877A67EEA67A41ED027A07EE90CAF8EE77
:10350000E77A67EE877A67EEA67A41ED017AE3D82B
:1035100059462246D047002198ED0D6A2B1DDFED5C
:10352000236A23489FED237ADFED235ADBED007AEF
:10353000024666EE277AF4EEE67AF1EE10FA0CD93E
:10354000F4EEC77AF1EE10FA67FE277A67EEA57AF5
:10355000FDEEE77A17EE902A12B2DBED017A45F81C
:10356000212066EE277AF4EEE67AF1EE10FA40F2C8
:10357000DB81F4EEC77A0BF1080BF1EE10FA67FE6F
:10358000277A67EEA57AFDEEE77A17EE902A12B257
:1035900043F821200231A142C8D3CD462C37BD4685
:1035A000BDE8F08F880C00240000003804FF7FBFC6
:1035B0000280FFFF04FF7F3F00FEFF46700C0024E7
:1035C0000422D8F804A04FF010097A62BAF1000F73
:1035D0007FF463AF3B62D8F80030BB61002BDDD0D5
:1035E000DA48C7F810D002F05BFC7B6AF860022B67
:1035F0003B6A00F044826A4660084946012BA2EB10
:10360000C4029546B860C4F35D02EB46ABEBC40060
:103610008546EE46ADEB090D0BEB820968460EEBD5
:10362000820CADEB010D0146C7F820D0F961C0E96D
:1036300000B909EB820088600CEB8201786178693F
:10364000029101EB820100EB82000391F969CDE95F
:1036500000ECC86000F0EE83022B00F00183002B29
:1036600040F0F581002C00F04B847A6A022A00F0C9
:103670004D841946D8F82420FB68DFEDB55A02EBDB
:103680008302FB697D6102F1040ED3E902A0331DC0
:10369000844636F92100D8ED0C7A06EE100A33F98B
:1036A000210006EE900A32F92100B8EEC66A07EE54
:1036B000100AF8EEE66A3EF92100B8EEC77A26EE67
:1036C000256A66EEA56A27EE257A26EE276A66EE5B
:1036D000A76A27EE277A07EE900A48080231F8EE2B
:1036E000E77A0BEB80058C4285ED006A09EB8005DB
:1036F00067EEA57AC5ED006A0AEB80050CEB800049
:1037000085ED007A98ED0C7A67EE877AC0ED007A45
:10371000BFD87D69BB69BA68D7E9070198473B6A9A
:1037200098ED0D7AD3E900CE7B6A022B00F03D8440
:10373000D8F82C300020FA68DFED8C6A03EB820A9F
:103740003B6A9FED846ADFED845A0AF10408834ED8
:10375000D3E9029B2B1D42080CEB82019200D1EDB4
:10376000007A67EE277AF4EEE67AF1EE10FA40F28C
:103770008481F4EEC67AF1EE10FA66FE277A67EEDF
:10378000A57AFDEEE77A17EE901A09B245F82010F7
:103790000EEB0201D1ED007A67EE277AF4EEE67ABD
:1037A000F1EE10FA40F26781F4EEC67AF1EE10FA0B
:1037B00066FE277A67EEA57AFDEEE77A17EE901A95
:1037C00009B243F8201009EB0201D1ED007A67EE4F
:1037D000277AF4EEE67AF1EE10FA40F24A81F4EE3E
:1037E000C67AF1EE10FA66FE277A67EEA57AFDEE4C
:1037F000E77A17EE901A09B25A444AF82010D2ED2F
:10380000007A67EE277AF4EEE67AF1EE10FA40F2EB
:103810002981F4EEC67AF1EE10FA66FE277A67EE99
:10382000A57AFDEEE77A17EE902A12B248F820202A
:10383000023084428FD80FE122465946D047ACE689
:1038400000297FF420AE2C37BD46BDE8F08F002C58
:10385000F2D0D8ED0C6A84469FED417A0021331DE9
:1038600056F821200CF1080C82F40002A2F50002A7
:1038700007EE902A53F821200231F8EEE77A82F41D
:1038800000028C42A2F5000267EE877A67EEA67A04
:103890004CED027A07EE902AF8EEE77A67EE877A27
:1038A00067EEA67A4CED017ADAD822465946D0471F
:1038B000002298ED0D6A2B1DDFED2C6A29489FED43
:1038C000257ADBED007A014666EE277AF4EEE67A99
:1038D000F1EE10FA0BD9F4EEC77AF1EE10FA67FEAA
:1038E000277AF0EE675AFEEEE45A15EE901ADBEDF9
:1038F000017A45F8221066EE277AF4EEE67AF1EEC8
:1039000010FA1AD9F4EEC77A0BF1080BF1EE10FA9F
:1039100067FE277AFEEEE47A17EE901A43F822103B
:1039200002329442CDD838E643F8210002310BF13F
:10393000080B8C423FF6FAAD2FE643F82200023224
:103940000BF1080B9442BCD827E600BF8C0C002476
:103950000000003804FF7F3F00FEFF460280FFFFAB
:10396000000000347E0080FF0000003004FF7FBFB5
:10397000002C3FF461AFD8ED0C6A01461FED067ACA
:103980000022331D844656F82200083107EE900AC3
:1039900053F822000232F8EEE77A944267EE877A13
:1039A00067EEA67A41ED027A07EE900AF8EEE77A22
:1039B00067EE877A67EEA67A41ED017AE3D8604632
:1039C00022465946D047002298ED0D6A2B1D5FED27
:1039D000196A9D489FEDA17ADBED007A014666EEFB
:1039E000277AF4EEE67AF1EE10FA0BD9F4EEC77A04
:1039F000F1EE10FA67FE277AF0EE675AFEEEE05A13
:103A000015EE901ADBED017A45F8221066EE277A62
:103A1000F4EEE67AF1EE10FA11D9F4EEC77A0BF172
:103A2000080BF1EE10FA67FE277AFEEEE07A17EE49
:103A3000901A43F8221002329442CDD8ADE543F8F3
:103A4000220002320BF1080B9442C5D8A5E5BA68F2
:103A5000BB69D7E907019847D7F810D02C37BD4686
:103A6000BDE8F08F48F82060023084423FF673AE24
:103A7000F2E73146C0E63146A3E6314686E6A000CD
:103A800049466208012B00F1070020F00700ADEB6A
:103A9000000DEB46ADEB000DBA606846ADEB090DCD
:103AA0000BEB8209EC46C7F81CD0ADEB010D00EB27
:103AB0008201CCE900B9C7F820D0009001917FF4D1
:103AC000CBAD002C00F01C8298ED0C6A331DDFEDAD
:103AD0005F6A56F82A1081F40001A1F5000107EE93
:103AE000901A53F82A1081F40001B8EEE77AA1F594
:103AF000000127EE267A07EE901A4FEA5A010AF1E2
:103B0000020AF8EEE77A0BEB810027EE067A09EB62
:103B10008101544567EEA67A80ED007A67EE867AD9
:103B2000C1ED007AD5D8BB69D7E9070198473B6A50
:103B300098ED0D7AD3E900CE7B6A022B00F0D28299
:103B4000D8F82C300020FA68DFED436A03EB820AD4
:103B50003B6A9FED426A0AF104083D4ED3E9029B9D
:103B60002B1D42080CEB82019200D1ED007A67EE2A
:103B7000277AF4EEE67AF1EE10FA63D9F4EEC67A1B
:103B8000F1EE10FA66FE277AF0EE675AFEEEE45A7E
:103B900015EE901A45F820100EEB0201D1ED007AD7
:103BA00067EE277AF4EEE67AF1EE10FA48D9F4EEF1
:103BB000C67AF1EE10FA66FE277AF0EE675AFEEE4C
:103BC000E45A15EE901A43F8201009EB0201D1EDEA
:103BD000007A67EE277AF4EEE67AF1EE10FA2DD944
:103BE000F4EEC67AF1EE10FA66FE277AF0EE675A26
:103BF000FEEEE45A15EE901A5A444AF82010D2ED1F
:103C0000007A67EE277AF4EEE67AF1EE10FA0FD931
:103C1000F4EEC67AF1EE10FA66FE277AFEEEE47A4A
:103C200017EE902A48F820200230844299D813E7F2
:103C300048F820600230844293D80DE73146DBE734
:103C40003146C0E73146A5E7007E00800000003421
:103C50007E0080FF0000003004FF7FBF04FF7F3F35
:103C6000002C00F04D817B6A022B00F07781D8F8A0
:103C70002430FA687D6103EB820CFB695FED0B5A1F
:103C800000220CF1040ED3E902A1331D0D4656F8B3
:103C90002210D8ED0C7A07EE101A53F82210B8EE65
:103CA000C76A07EE101A5CF82210F8EEC76A07EE32
:103CB000101A26EE256A5EF82210B8EEC77A66EE74
:103CC000A56A26EE276A27EE257A66EEA76A27EE12
:103CD000277A07EE901A51080232F8EEE77A0BEBDA
:103CE0008100944280ED006A09EB810067EEA57ABD
:103CF000C0ED006A0AEB810005EB810180ED007ADE
:103D000098ED0C7A67EE877AC1ED007ABFD87D69AD
:103D1000BB69BA68D7E9070198473B6A98ED0D7A05
:103D2000D3E900CE7B6A022B00F08881D8F82C30D2
:103D30000020FA685FED386A03EB820A3B6A1FEDE8
:103D4000396A0AF10408DF4ED3E9029B2B1D4208B1
:103D50000CEB82019200D1ED007A67EE277AF4EE47
:103D6000E67AF1EE10FA63D9F4EEC67AF1EE10FAC3
:103D700066FE277AF0EE675AFEEEE05A15EE901ACC
:103D800045F820100EEB0201D1ED007A67EE277A9C
:103D9000F4EEE67AF1EE10FA48D9F4EEC67AF1EED6
:103DA00010FA66FE277AF0EE675AFEEEE05A15EE3C
:103DB000901A43F8201009EB0201D1ED007A67EE6A
:103DC000277AF4EEE67AF1EE10FA2DD9F4EEC67AFF
:103DD000F1EE10FA66FE277AF0EE675AFEEEE05A30
:103DE00015EE901A5A444AF82010D2ED007A67EE88
:103DF000277AF4EEE67AF1EE10FA0FD9F4EEC67AED
:103E0000F1EE10FA66FE277AFEEEE07A17EE902ABF
:103E100048F820200230844299D81DE648F82060F6
:103E20000230844293D817E63146DBE73146C0E7DB
:103E30003146A5E7002C63D0D8F824305246F96803
:103E40007D6003EB810CDFEDA05A331D7D690CF121
:103E5000040E56F82210D8ED0C7A81F40001A1F579
:103E6000000107EE101A53F8221081F40001B8EE99
:103E7000C76AA1F5000126EE256A07EE101A5CF864
:103E8000221081F40001F8EEC76A26EE276AA1F538
:103E9000000166EEA56A07EE101A5EF82210B8EE71
:103EA000C77A81F4000166EEA76AA1F5000127EE4A
:103EB000257A27EE277A07EE901A51080232F8EE9B
:103EC000E77A0BEB810A94428AED006A09EB810ADA
:103ED00067EEA57ACAED006A05EB810A00EB810165
:103EE0008AED007A98ED0C7A67EE877AC1ED007A58
:103EF000AFD8BB69D7E90152D7E90701984716E661
:103F00000022BB69D7E907019847A5E51A4698ED55
:103F10000C6ADFED6E6A331D36F9221007EE101AB7
:103F200033F9221007EE901AB8EEC77A5108023220
:103F3000F8EEE77A27EE267A0BEB8100944209EB44
:103F4000810167EEA67A27EE067A67EE867A80ED23
:103F5000007AC1ED007ADFD8FFF7DCBB98ED0C6A80
:103F60000022DFED5B6A331D56F8221007EE901A2F
:103F700053F82210B8EEE77A07EE901A5108023291
:103F8000F8EEE77A27EE267A0BEB8100944209EBF4
:103F9000810167EEA67A27EE067A67EE867A80EDD3
:103FA000007AC1ED007ADFD8B2E60021DFED4B6A7E
:103FB0009FED4B6A2B1DDFED475A47484A080646DE
:103FC0000CEB82089200D8ED007A67EE277AF4EEC7
:103FD000E67AF1EE10FA0CD9F4EEC67AF1EE10FAA8
:103FE00066FE277A67EEA57AFDEEE77A17EE906A0D
:103FF00036B2724445F82160D2ED007A67EE277A36
:10400000F4EEE67AF1EE10FA12D9F4EEC67AF1EE99
:1040100010FA66FE277A67EEA57AFDEEE77A17EECC
:10402000902A12B243F8212002318C42C6D813E5FF
:1040300043F8210002318C42C0D80DE50021DFEDAC
:10404000276A9FED276A2B1D1E484A0806460CEB7F
:1040500082089200D8ED007A67EE277AF4EEE67ACD
:10406000F1EE10FA0BD9F4EEC67AF1EE10FA66FE14
:10407000277AF0EE675AFEEEE05A15EE906A724427
:1040800045F82160D2ED007A67EE277AF4EEE67A01
:10409000F1EE10FA0FD9F4EEC67AF1EE10FA66FEE0
:1040A000277AFEEEE07A17EE902A43F821200231BB
:1040B0008C42CAD8D0E443F8210002318C42C4D8E3
:1040C000CAE400BF007E0080000000340000003819
:1040D0000000003000FEFF460280FFFF04FF7FBFAC
:1040E00004FF7F3F00215FED036A1FED036A2B1D74
:1040F0001E484A0806460CEB82089200D8ED007A6A
:1041000067EE277AF4EEE67AF1EE10FA0BD9F4EEC8
:10411000C67AF1EE10FA66FE277AF0EE675AFEEEE6
:10412000E45A15EE906A724445F82160D2ED007AA7
:1041300067EE277AF4EEE67AF1EE10FA0FD9F4EE94
:10414000C67AF1EE10FA66FE277AFEEEE47A17EEF2
:10415000902A43F8212002318C42CAD87CE443F8EB
:10416000210002318C42C4D876E400BF7E0080FF7B
:1041700030B5184C85B01546046004F1080E0FC91F
:104180008EE80F00D4ED047AF5EEC07A8DE80F00CA
:10419000F1EE10FA1ADDB7EE006A94ED057A27EE1B
:1041A000277AC6EE276A84ED0D7AC4ED0C6A6DB1EC
:1041B000204640F8185F01F009FE07490369002016
:1041C000064A2162A262E36005B030BD012005B05D
:1041D00030BD00BF700C0024002000300000003013
:1041E00000680830704700BFB1F5807F03680A4659
:1041F00028BF4FF48072B1F5807F9A6094BF002091
:10420000012070470068183001F038BE30B50468EE
:1042100083B00D46E3694BB1A3680020E26A616A8E
:104220009B00009004F11C0001F0D2FDA368074838
:10423000A26A9B00216A009004F1180001F0C8FDF9
:104240000020C4E9005003B030BD00BF5D34000859
:10425000064B302003214FF07E52C3E902010020BB
:1042600000211A615A61C3E906017047700C0024ED
:1042700030B5044687B00025ADF81410ADF8102015
:10428000ADF80C3001F0D0FE2A462060059904F10B
:104290002C0025710123009500F0A0F901232A4686
:1042A000049904F14000009500F098F99FED060A8A
:1042B000039904F1080000F047F84FF6FF73A56575
:1042C000A4F8543007B030BD00000000F8B5044633
:1042D00001F0AAFE002723682771834205D104F16B
:1042E0000800BDE8F84000F045B8012694F85450A5
:1042F000206004F12C00B540267100F07DFA6DB20B
:10430000284394F85550B54084F8540004F1400017
:1043100000F072FA94F854306DB2A76503F003030D
:104320002843022B40B284F8550000F0030007D068
:10433000002BD4D10228D2D14FF0FF33A365CEE7B2
:104340000028CCD1A665CAE710B586B00446ADF802
:10435000141001F069FE4FF48071002220600123E7
:10436000A18004F10800A1830599009200F036F9BC
:1043700006B010BD10B5044601F056FE00212268BB
:104380002171824200D110BD0346012204F10800D0
:104390002360227100F030FA627F237F504040EAB0
:1043A0004300C0B27F282077EDD101F03DFE07EE3B
:1043B000900AF8EE677AC4ED087A10BD84460FC9FA
:1043C0008CE80F009CF800300B2B47D000B59CF810
:1043D00001E091B0BEF10F0F3DD802293FD0032973
:1043E00004D0A1F10101B1FA81F14909DCF80820FA
:1043F0000C91012A05D0A2F10202B2FA82F252090E
:104400005200DCF80C100D92022906D0032904D0CA
:10441000A1F10101B1FA81F149090A2B0E910FD8DE
:10442000624A591E02EB8323CCF81030092900F2AE
:10443000AE80DFE801F02534435261707F8E9D1617
:1044400000231846CCF8103001230BA903FA0EF311
:104450000B9303F091FD11B05DF804FB704711213F
:10446000C4E7534B5348D3F8E02042F48062C3F8CA
:10447000E020D3F8E03003F480630A930A9BE3E77B
:104480004B4B4D48D3F8E02042F00202C3F8E02045
:10449000D3F8E03003F002030193019BD4E7444BCF
:1044A0004648D3F8E02042F00402C3F8E020D3F8F5
:1044B000E03003F004030293029BC5E73C4B404805
:1044C000D3F8E02042F00802C3F8E020D3F8E0304F
:1044D00003F008030393039BB6E7354B3948D3F841
:1044E000E02042F01002C3F8E020D3F8E03003F0FF
:1044F00010030493049BA7E72D4B3348D3F8E02027
:1045000042F02002C3F8E020D3F8E03003F02003AB
:104510000593059B98E7264B2C48D3F8E02042F002
:104520004002C3F8E020D3F8E03003F040030693E4
:10453000069B89E71E4B2648D3F8E02042F0800214
:10454000C3F8E020D3F8E03003F080030793079B23
:104550007AE7174B1F48D3F8E02042F48072C3F883
:10456000E020D3F8E03003F480730893089B6BE7F6
:104570000F4B1948D3F8E02042F40072C3F8E02052
:10458000D3F8E03003F400730993099B5CE7084B10
:104590000648D3F8E02042F00102C3F8E020D3F847
:1045A000E03003F001030093009B4DE70000025848
:1045B000004402580028025800040258000802581B
:1045C000000C02580010025800140258001802583B
:1045D000001C0258002002580024025810B592B066
:1045E0000180ADF80410C9B2149C0B29C460C0E965
:1045F00001233FD090F801E08446BEF10F0F39D877
:10460000022A39D0032A04D0A2F10102B2FA82F2BE
:104610005209012B0E9205D0A3F10203B3FA83F3E2
:104620005B095B00022C0F9306D0032C04D0A4F18D
:104630000104B4FA84F464090A2910940FD8624B77
:104640004A1E03EB8123CCF81030092A00F2AC801B
:10465000DFE802F0233241505F6E7D8C9B14002313
:104660001846CCF8103001230DA903FA0EF30D9370
:1046700003F082FC12B010BD1122CAE7534B54481C
:10468000D3F8E02042F48062C3F8E020D3F8E030B1
:1046900003F480630C930C9BE5E74C4B4D48D3F837
:1046A000E02042F00202C3F8E020D3F8E03003F04B
:1046B00002030393039BD6E7444B4748D3F8E0201B
:1046C00042F00402C3F8E020D3F8E03003F0040322
:1046D0000493049BC7E73D4B4048D3F8E02042F0E9
:1046E0000802C3F8E020D3F8E03003F00803059394
:1046F000059BB8E7354B3A48D3F8E02042F010026A
:10470000C3F8E020D3F8E03003F010030693069BD3
:10471000A9E72E4B3348D3F8E02042F02002C3F83B
:10472000E020D3F8E03003F020030793079B9AE7DB
:10473000264B2D48D3F8E02042F04002C3F8E02099
:10474000D3F8E03003F040030893089B8BE71F4B3E
:104750002648D3F8E02042F08002C3F8E020D3F8E6
:10476000E03003F080030993099B7CE7174B204856
:10477000D3F8E02042F48072C3F8E020D3F8E030B0
:1047800003F480730A930A9B6DE7104B1948D3F822
:10479000E02042F40072C3F8E020D3F8E03003F4E4
:1047A00000730B930B9B5EE7084B0748D3F8E020A0
:1047B00042F00102C3F8E020D3F8E03003F0010337
:1047C0000293029B4FE700BF0000025800440258CA
:1047D000002802580004025800080258000C025831
:1047E000001002580014025800180258001C025809
:1047F000002002580024025808B5012143780069BE
:10480000994089B203F0ECFE003818BF012008BDC2
:1048100001230A464178006903FA01F189B203F0E5
:10482000E5BE00BF10B5002386B0122204460393F4
:10483000CDE901230368022B1FDC002B01DB0423DD
:10484000049323790A2B1FD8114800EB8320627947
:10485000012369469340009303F08EFBA3790A2B52
:1048600014D80B4800EB8320E2790123694693407A
:10487000009303F081FB06B010BD032BE1D10623AA
:10488000049323790A2BDFD90020E0E70020EBE72F
:1048900000000258634A0368934210B58CB028D0D8
:1048A000614A934258D0614A934200F09480604A32
:1048B000934201D00CB010BD5E4C5F48D4F8E0309C
:1048C00043F00203C4F8E030D4F8E03003F0020310
:1048D0000A930A9BFFF7A6FFD4F8F43043F0800355
:1048E000C4F8F430D4F8F43003F080030B930B9B3E
:1048F000E0E7504C5148D4F8E03043F00203C4F8EC
:10490000E030D4F8E03003F002030193019BFFF79D
:1049100089FFD4F8E83000221F2043F40013114629
:10492000C4F8E830D4F8E83003F400130293029B93
:10493000D4F8D83043F00103C4F8D830D4F8D830D4
:1049400003F001030393039B01F028FF1F200CB029
:10495000BDE8104001F05EBF364C3948D4F8E03075
:1049600043F08003C4F8E030D4F8E03003F0800373
:104970000493049BD4F8E03043F00203C4F8E03021
:10498000D4F8E03003F002030593059BFFF74AFFDC
:10499000D4F8E8300022212043F480031146C4F803
:1049A000E830D4F8E83003F480030693069BD4F88B
:1049B000D83043F00103C4F8D830D4F8D83003F02D
:1049C00001030793079B01F0E9FE21200CB0BDE82D
:1049D000104001F01FBF1B48FFF724FF154B0022BA
:1049E0004820D3F8E840114644F40004C3F8E840F6
:1049F000D3F8E84004F400040894089CD3F8D840A5
:104A000044F00104C3F8D840D3F8D83003F00103D0
:104A10000993099B01F0C2FE48200CB0BDE810408C
:104A200001F0F8BE0054004000580040005C004017
:104A3000001C0058004402584C0F0024AC0C002409
:104A40008C0D00246C0E0024F0B5002287B0184BAA
:104A50001021CDF802206F46CDF806209C46CDF8F7
:104A60000A206E46CDF80E200CF11805CDF8122064
:104A70000CF1300EADF81620FF220E4B6C46ADF84F
:104A800000101A700FCFACE80F0097E803008CE815
:104A900003000FCE0FC596E8030085E803000FCC96
:104AA000AEE80F0094E803008EE8030007B0F0BD05
:104AB00004000024A80C002410B5EFF3108472B693
:104AC000084B1A78120602D504B962B610BD1B78DD
:104AD00005485BB2C3EBC30300EB431003F038F8A7
:104AE000F2E700BFA80C0024C00C0024014804F029
:104AF0009FBF00BF380D0024014804F099BF00BFDC
:104B0000180E0024014804F093BF00BFF80E0024E3
:104B10002DE9F0430D6885B03E4EC5EBC503032D6E
:104B20004FEA431706EB431303605BDCCA680C468D
:104B3000012A57D84FEAC50850D020689C466168C2
:104B4000A8EB0509A2680DF1100EE36806EB491900
:104B5000ACE80F00304B227C8CF80020D9F808C05C
:104B60000FCB0EE90F000EEB8503BCF1010F53F8DC
:104B7000103CC9F88C3043D0BCF1020F36D0BCF1E8
:104B8000000F08D101F000FC244B98420CBF244BCD
:104B9000244BC9F890308C37227CA8EB0508002301
:104BA0003744520006EB481601213846C6F8AC30AF
:104BB000C6E92521C6E92733C6E9293304F0D8FB25
:104BC00080B90146384604F03FFF58B901463846DF
:104BD00004F064FF003818BF012004E00A7C103A9A
:104BE000672AAAD9012005B0BDE8F08301F0CCFB0B
:104BF0000A4B98420CBF0C4B0C4BC9F89030CAE7DB
:104C000001F0C2FB054B98420CBF094B094BC9F898
:104C10009030C0E7AC0C00240C4F0108000E2707B1
:104C20005F4390608A62E030200BA0101A09801068
:104C30002D0FB0303211D0202DE9F041D0F8008096
:104C400082B00D4617461E4608F18C04204604F03B
:104C5000F7FE2028FAD1D8F80C3073B96D00204641
:104C6000089C33463A46A9B2009404F0D7FB0038BA
:104C700018BF012002B0BDE8F081089B32463946DA
:104C8000204604F097FDF2E7094B6FF0F411102273
:104C90005960C3F8E410C3F8C411C3F8A4121A741D
:104CA00083F8F02083F8D02183F8B022704700BF4A
:104CB000AC0C002430B5002395B04FF4807106226F
:104CC00004460B9306921393CDE90C13CDE90E33F2
:104CD000CDE9113301F05AFB07282AD004F1100561
:104CE00041F2883206A9284605F02EFF28B101239B
:104CF00084F85C30012015B030BD0223102206A9D3
:104D0000284602920022CDE90033012303934FF499
:104D10008003CDE9042305224FF0807306926A4692
:104D20000F9341F2883306F0ABF80028DFD115B0BD
:104D300030BD032384F85C30DCE700BF00000000D6
:104D400070B50023A4B04FF080724FF48075044614
:104D5000ADF806301B93CDE91E320122CDE91C537C
:104D6000CDE92023CDE92233002942D0F02300F100
:104D7000100516AEADF80630C02341F28832314638
:104D80002846169305F0E0FE28B1012384F85C3034
:104D9000012024B070BD41F288320DF10601284691
:104DA00005F04EFF03460028EFD14FF48071052235
:104DB000284601250892102210930D931593029313
:104DC0000595CDE90E139FED1E7B4FF08071CDE967
:104DD0001333119141F2883308A9CDE9035202AA95
:104DE0008DED067B06F04CF80028D2D084F85C509C
:104DF000CEE700F1100516AE612341F2883231464C
:104E00002846169305F0A0FE0028BED141F2883254
:104E10000DF10601284605F0A1FF0028B5D1BDF827
:104E20000630204623F0780343F04003ADF8063007
:104E3000FFF740FF00289FD0A7E700BFAFF3008037
:104E400000000000000040002DE9F04F00234FF467
:104E5000807601254FF0807804462DED028BABB0B3
:104E60008DF80730219313931B9322961C95CDF850
:104E70009480CDE92333CDE92653CDE92833CDE91C
:104E80001463CDE91633CDE9193306230E9301F0EF
:104E90007DFA072808D004F1100741F288320EA9E4
:104EA000384605F051FE40B1012384F85C30012002
:104EB0002BB0BDEC028BBDE8F08F02234FF0100A3F
:104EC0004FF0050908AA0EA938460B95CDF85C806D
:104ED000CDF828A0CDF838909FED2B8BCDE9083385
:104EE00041F288338DED0C8B05F0CAFF0028DBD131
:104EF00041F2883238461CA905F026FE0028D3D19D
:104F00004FF0400B41F288320DF1070138468DF821
:104F100007B005F095FE0028C6D143224FF40043A8
:104F20001CA93846CDF808B00595CDF87090CDF89D
:104F30009480CDE9032341F2883302AA8DED068BDC
:104F400005F09EFF03460028AED1139308AA1B93D9
:104F50000EA938461496CDF83890CDF85C80CDF87F
:104F600028A00B95CDE91533CDE91933CDE90835E6
:104F700041F288338DED0C8B05F082FF002897D02D
:104F800084F85C5093E700BF000000000000400080
:104F90002DE9F04700234FF4807601254FF080780B
:104FA00004462DED028BAAB0CDE923332193139350
:104FB0001B9322961C95CDF89480CDE92653CDE91C
:104FC0002833CDE91463CDE91633CDE9193306232F
:104FD0000E9301F0DBF9072808D004F1100741F225
:104FE00088320EA9384605F0AFFD40B1012384F8A0
:104FF0005C3001202AB0BDEC028BBDE8F0870223B3
:105000004FF0100A4FF0050908AA0EA938460B9573
:10501000CDF85C80CDF828A0CDF838909FED2C8B92
:10502000CDE9083341F288338DED0C8B05F028FF74
:105030000028DBD141F2883238461CA905F084FDF6
:105040000028D3D1402341F288320DF107013846C0
:105050008DF8073005F0F4FD0028C7D19DF8073022
:1050600008AA0C90FF2008934FF400431CA90B954D
:10507000CDF87090CDF89480CDE909034FF480030A
:1050800038460D9341F2883305F0FAFE03460028B6
:10509000ACD113930EA91B933846029302AA14961F
:1050A000CDF83890CDF85C80CDF810A0039505952B
:1050B000CDE91533CDE9193341F288338DED068BF7
:1050C00005F0DEFE002895D084F85C5091E700BF23
:1050D000000000000000400070B50122AAB00446A4
:1050E0000D465D48C02103F081FA00265B4B069611
:1050F000594895FAA5F5CDE90466D3F8E02042F0C9
:105100002002C3F8E020C022D3F8E03003F02003EF
:1051100001930123019902A9CDE9022302F02CFF9A
:10512000142001F011FB3246C0214B4803F05EFA17
:10513000142001F009FB0122C021474803F056FA70
:10514000142001F001FB0123454AE6612261C4E914
:105150000533002D77D0B5FA85F1013900234FF4DE
:10516000807604F11005C4E908162846C4E90B331B
:1051700005F074FC30B101231D4684F85C302846EC
:105180002AB070BD66231690179041F288321390B2
:105190000EA91B900E93CDE91460CDE919002846A5
:1051A00005F0D2FC0028E6D199230EA941F28832FD
:1051B00028460E9305F0C8FC0028DCD10523012207
:1051C000102124901C934FF080732190259341F27D
:1051D0008833299008900B929FED1D7BCDE9092122
:1051E000CDE92260CDE9270008AA1CA928468DED4B
:1051F0000C7B05F045FE0028BDD12046FFF7C8FE18
:105200000028B8D1284605F08DFC05460028B2D10B
:1052100023790A2B02D8134800EB832063790121FC
:10522000994003F0ADF8A3790A2B0ED80D4800EB96
:1052300083200126E17906FA01F103F0A1F8266640
:1052400084F864609BE71F2188E70020F1E700BF36
:105250000000000000004000001402580044025802
:1052600000500052000002582DE9F041684CA2B0F5
:105270000D46046001F08AF8072858D028682346B4
:10528000AA68696807C3AA89184620F8042B267BF8
:10529000677B05F047FC002838D194F86430002B78
:1052A0003CD1012E204623660CBF4FF400054FF47D
:1052B00080152946FFF710FF564B95FAA5F5236197
:1052C0000123C4E905330023E361002D6FD0B5FA53
:1052D00085F1013900234FF480754F48C4E9081562
:1052E000C4E90B3305F0BAFB80B966230B90139029
:1052F00041F2883206A90693CDE90C50CDE90E00A3
:10530000CDE91100444805F01FFCA0B1012384F849
:105310005C300126304622B0BDE8F08101239E4278
:10532000236614BF4FF480154FF40005C4E7032330
:1053300084F85C30EDE7992341F2883206A93648BB
:10534000069305F001FC0028E0D105234FF0010889
:105350001C906A4614934FF08073199014A91D9302
:10536000102321900090029341F28833CDF80480FD
:10537000CDF80C809FED227BCDE91A50CDE91F00BE
:1053800025488DED047B05F07BFD0028BED131461C
:105390001F48FFF7D5FC0028B8D11D48FFF754FD82
:1053A00006460028B2D127B102232366B2E71F21A7
:1053B00090E7EB2306AA14A9174814934FF440630F
:1053C0001A951B934FF40053189717934FF44043CB
:1053D0001C93A0231693062319934FF080539FED3F
:1053E0000A7B21934FF04073CDE91F771D938DED1C
:1053F000067B05F0D3FD0028D6D084F85C8088E7D2
:10540000000000000000400000000000000000005C
:105410003010002400500052401000245D4A016802
:105420002DE9F04F91428FB04FF00004CDE90944CF
:10543000CDE90B440D9402D00FB0BDE8F08F564A71
:1054400006ADDFF860A10DF11C0BD2F8D4305AF88C
:10545000080CAAF1680743F48043DFF844814F4EFB
:10546000C2F8D430D2F8D430DFF83C9103F4804352
:105470000193019BD36F43F48043D367D36F23F42D
:105480008043D367D2F8E03043F04003C2F8E03005
:10549000D2F8E03003F040030293029BD2F8E030F0
:1054A00043F02003C2F8E030D2F8E03003F02003EC
:1054B0000393039BD2F8E03043F01003C2F8E030CE
:1054C000D2F8E03003F010030493049BD2F8E030EC
:1054D00043F00203C2F8E030D2F8E03003F00203F8
:1054E0000593059BE3B228BB032B3ED8DAF81830AE
:1054F0001A780A2A44D85978294B03EB82230122CF
:105500008A40022009920022CDF81890CDE90A02C3
:1055100003220C922A78184609A901340D9202F050
:105520002BFD386E01350BF1010B0AF1040AE3B2D1
:105530000028D9D0062B18D0DAF8002010780A28D5
:1055400023D85178012208EB80238A400221099256
:105550000022CDE90A12032296E803000C9207907C
:10556000ADF820109BF80020D5E700225C20114602
:1055700001F014F95C2001F04DF90FB0BDE8F08F97
:105580005978012203468A40BBE7537801229A40AA
:105590000023DBE70050005200440258C84F0108C6
:1055A00000000258981000240A0A090A4E4B0268AB
:1055B0009A4200D070474D4A2DE9F041D2F8D430DC
:1055C0004B4C23F48043216EC2F8D43000296FD0B5
:1055D000A36E1A780A2A79D8464800EB82205B78B5
:1055E0000121994089B202F0CBFE236E002B67D0D7
:1055F000E36E1A780A2A6ED83E4800EB82205B7868
:105600000121994089B202F0BBFE236E002B5AD0D3
:10561000236F1A780A2A60D8364800EB82205B781C
:105620000121994089B202F0ABFE236E002B4FD0CE
:10563000636F1A780A2A52D82E4800EB82205B78D2
:105640000121994089B202F09BFE236E002B32D0DB
:10565000A36F1A780A2A44D8264800EB822059788A
:105660000126DFF88C80052506FA01F1214F89B269
:1056700002F086FE236EB3B9032D1CD8D8F89430FF
:1056800018780135597808F104080A2807EB8020BA
:1056900006FA01F1EDB288BF002089B202F070FE77
:1056A000236E002BE8D0062D05D0D8F87C30E7E734
:1056B000D4F880308DE75C20BDE8F04101F0B8B847
:1056C000D4F8843095E7D4F88830A2E7002086E744
:1056D000D4F88C30ADE7002091E700209FE7002050
:1056E000ADE70020BBE700BF005000520044025865
:1056F0003010002400000258014805F0DDBC00BF56
:10570000401000240E4B6FF0F4120021981C30B4AE
:105710001C1D9D1D9A60196683F8641003F1080131
:105720005D671C67C3E9002203F10A0230BCC3E9CC
:105730001A30C3E91E12C3E92030C3E922127047B0
:10574000301000242DE9F043C2888BB005468388D1
:10575000ADF8042000896989AA89ADF80630AB69E3
:10576000ADF80800ADF80A10ADF80C20002B42D0BF
:10577000EB69B3FA83F94FEA59190126022301AC08
:105780000DF10E07DFF880800796CDE90536237806
:105790002A7961789A4216D02A6806FA01F0EAB1AD
:1057A000012A02D10BB30A2208920A2B04901AD8BC
:1057B00008EB832004A902F0DFFB0234A742E6D104
:1057C0000BB0BDE8F0836A798A42E5D1B9F1000FE8
:1057D000F3D02A6806FA01F0002AE1D106220A2B4A
:1057E00004900892E4D90020E4E7022906D00A22B6
:1057F00004900892DCE74FF00109BEE70822089206
:1058000004220492D4E700BF00000258A04A0368B3
:10581000934270B505468AB07FD0203293427CD047
:105820009C4A934204D02032934201D00AB070BD0A
:10583000994C9A48D4F8E03043F00103C4F8E030C2
:10584000D4F8E03003F001030593059BD4F8E03071
:1058500043F00803C4F8E030D4F8E03003F0080364
:105860000693069BD4F8E03043F04003C4F8E030E0
:10587000D4F8E03003F040030793079BD4F8F030EE
:1058800043F40003C4F8F030D4F8F03003F400031C
:105890000893089BFFF756FFD4F8D820804B42F0BE
:1058A00001022968D3F85C02C4F8D820D4F8D820C3
:1058B00002F001020992774A099C914200F0AB8004
:1058C000D3F88022013A18BF01229201002840F04B
:1058D000CC807448582103F22C4403F54775C3F873
:1058E0002C0400232046C4E901124FF480524FF4E7
:1058F0008061636262614FF48042C4E903314FF416
:105900008073C4E906234FF40033236201F0F8F8F2
:10591000002800F09580FFBEFEE75F4C604ED4F893
:10592000E030304643F00103C4F8E030D4F8E03012
:1059300003F001030093009BD4F8E03043F0100320
:10594000C4F8E030D4F8E03003F010030193019B79
:10595000D4F8E03043F04003C4F8E030D4F8E0304D
:1059600003F040030293029BD4F8F03043F4800329
:10597000C4F8F030D4F8F03003F480030393039BB1
:10598000FFF7E0FED4F8D830296843F00103404A1D
:105990003068C4F8D8309142D4F8D83003F001030D
:1059A0000493049B27D0736A013B18BF01239B011A
:1059B000002852D13B4A06F5E8745821C036C6F893
:1059C000102100222046C4E901134FF480534FF404
:1059D0008061626263614FF48073C4E903214FF414
:1059E0008042C4E906234FF40033236201F088F8B3
:1059F00008B3FFBEFEE7336A013B18BF01239B01DA
:105A000018BB02F5284206F5AC74572128360C3233
:105A1000C6F83021D5E7D3F87C22013A18BF01221D
:105A2000920158BB2048572103F56D7403F5217589
:105A3000C3F8B40355E7C6E92044A6630AB070BDB5
:105A4000C5E92044A5630AB070BD184A06F5AC74D8
:105A500059212836C6F83021B3E7154A06F5E8740F
:105A60005A21C036C6F81021ABE711485A2103F27B
:105A70002C4403F54775C3F82C0432E70B48592131
:105A800003F56D7403F52175C3F8B40329E700BF6E
:105A900004580140045C0140004402581C130024D7
:105AA000C0100024280002401000024058000240AC
:105AB00070000240014802F04BB800BF18120024E9
:105AC000014802F045B800BF90120024014802F0DE
:105AD0003FB800BF74140024014802F039B800BF79
